:100000000C94CE020C9415030C9415030C94150358
:100010000C9415030C9415030C9415030C94150300
:100020000C9415030C9415030C9415030C94DF2603
:100030000C948E270C94D31D0C9415030C9415036B
:100040000C9415030C9415030C9415030C94201EAA
:100050000C9415030C9415030C9415030C941503C0
:100060000C9415030C9415030C9415030C941503B0
:100070000C941503D10DD40DDC0DE10DE60DEB0D47
:10008000F00DF50DFA0DFF0D040E090E0B0E0E0E00
:10009000110E140E170E1A0E1C0E210E36133613E7
:1000A00068136813B513D313F414F414DE13731424
:1000B00084148414E414F414F414ED1494159415B5
:1000C000A615A6159D15A615A615A6159415941585
:1000D000A215A615A615A215FB2722281A29222843
:1000E0001A296E2891281A29E828F7282B001400CD
:1000F0001A000800150017001C0018000C00120060
:1001000013002A00E00004001600070009000A009E
:100110000B000D000E000F0033003400E1001D0045
:100120001B00060019000500110010003600370002
:10013000380028003500E200E300290002512C00BD
:100140002C0001515000510052004F0035001E009C
:100150001F0020002100220023002400250026008B
:1001600027004C000100C25CC35CC95CCA5C010092
:1001700001002D002E002F00300031000100010091
:100180000100010001000100010001000100010067
:100190000100010001000100010001000100010057
:1001A00001000100010001000100010035021E02F2
:1001B0001F0220022102220223022402250226021B
:1001C00027024C0001003A003B003C003D003E008D
:1001D0003F002D022E022F023002310201004000AA
:1001E00041004200430044004500010001000100BD
:1001F00001000100010001000100010001000100F7
:1002000001000100010001000100010032190A0093
:10021000047F3F1F643214643214783C1E1E140A9B
:10022000052223252628292A2C2D2F303233353636
:10023000383A3B3D3E4042434547494A4C4E505177
:10024000535557595A5C5E6062646668696B6D6F9E
:1002500071737577797B7D7F81838587898A8C8EA1
:1002600090929496989A9C9E9FA1A3A5A7A8AAACA9
:10027000AEAFB1B3B4B6B8B9BBBCBEBFC1C2C3C5E3
:10028000C6C7C9CACBCCCDCED0D1D2D2D3D4D5D685
:10029000D7D7D8D9D9DADADBDBDBDCDCDCDCDCDDB8
:1002A000DDDDDDDCDCDCDCDCDBDBDBDADAD9D9D89C
:1002B000D7D7D6D5D4D3D2D2D1D0CECDCCCBCAC934
:1002C000C7C6C5C3C2C1BFBEBCBBB9B8B6B4B3B163
:1002D000AFAEACAAA8A7A5A3A19F9E9C9A989694FE
:1002E00092908E8C8A89878583817F7D7B797775D3
:1002F00073716F6D6B6968666462605E5C5A5957B2
:10030000555351504E4C4A4947454342403E3D3B70
:100310003A3836353332302F2D2C2A2928262523FA
:1003200022FFAA7F554000010101010101010101E5
:100330000202020202020202020303030303030396
:100340000304040404040404050505050506060663
:100350000606070707070708080808090909090A20
:100360000A0A0B0B0B0C0C0C0D0D0D0E0E0E0F0FC5
:100370000F10101111111212131314141515161653
:100380001717181819191A1A1B1B1C1D1D1E1E1FC2
:100390002020212222232424252626272829292A11
:1003A0002B2C2D2D2E2F3031323233343536373839
:1003B000393A3B3C3D3E3F40414243444546474835
:1003C000494A4C4D4E4F50515354555658595A5B0B
:1003D0005D5E5F616264656668696B6C6D6F7072AB
:1003E000737577787A7B7D7E8082838587888A8C17
:1003F0008E8F91939596989A9C9EA0A2A3A5A7A94B
:10040000ABADAFB1B3B5B7BABCBEC0C2C4C6C9CB41
:10041000CDCFD1D4D6D8DBDDDFE2E4E7E9EBEEF0F7
:10042000F3F5F8FAFDFF0403300000000E03550059
:100430005400340037002E003200000010034B003F
:10044000650079006800690076006500000004031B
:10045000090409023B00020100A0FA09040000019E
:10046000030101000921110100012240000705815B
:100470000308000A0904010001030000000921111A
:1004800001000122BC000705820320000A120110AE
:100490000100000008EDFE0000010001020301055B
:1004A000010902A10185020901A10005091901291B
:1004B00005150025019505750181029501750381DA
:1004C000010501093009311581257F9502750881E3
:1004D0000609381581257F950175088106050C0AE6
:1004E00038021581257F950175088106C0C0050178
:1004F0000980A101850319012AB700150126B7005B
:10050000950175108100C0050C0901A10185041930
:10051000012AA002150126A002950175108100C0D4
:1005200005010906A1018505050719E029E7150060
:1005300025019508750181020507190029EF1500AD
:10054000250195F075018102050819012905950518
:1005500075019102950175039101C005010906A17C
:1005600001050719E029E7150025019508750181A6
:10057000029501750881010507190029FF1500265C
:10058000FF009506750881000508190129059505E4
:1005900075019102950175039101C00011241FBEE0
:1005A000CFEFD4E0DEBFCDBF04B603FE27C08091FD
:1005B000090390910A03A0910B03B0910C038730BB
:1005C000904BA740B04BD1F41092090310920A034C
:1005D00010920B0310920C0314BE84B7877F84BF64
:1005E0000FB6F894A89580916000886180936000B0
:1005F000109260000FBEE0E0F8E3099511E0A0E082
:10060000B1E0E2E6F5E502C005900D92A83CB10725
:10061000D9F723E0A8ECB1E001C01D92A930B207E0
:10062000E1F70E942C240C94AF2A0C9400000C9447
:1006300006060C94040681E0089581E008950C9468
:100640001D0308950C9421031F93CF93DF9300D0D3
:1006500000D01F92CDB7DEB749835A836B833091A8
:10066000120289819A81311114C0662359F0222324
:1006700049F00E94DA1A182F682F89819A810E9406
:100680007A1A03C00E94AB1A182F69817A81812FD0
:1006900004C00E94DA1A69817A810F900F900F903E
:1006A0000F900F90DF91CF911F910C94DC03FC0110
:1006B000262F408151816281738184810C942403AF
:1006C000CF93DF93EC0160E00E945703BE01DF91FE
:1006D000CF910C9422030E940C1C811102C00E9435
:1006E000B61C0C9417030C94190308950C9475030D
:1006F00081E008950C947803CF93C82F0E9476036D
:100700008C2F0E947A03CF91089508950E9482153C
:100710000E9485032FEF84E39CE0215080409040AD
:10072000E1F700C000000C94461E0F931F93CF9377
:10073000DF93EC0161E00E9457038C01BE010E942F
:100740001F03882379F1BE01C8010E94CA0E8823C5
:1007500049F1BE01C8010E940B0F882319F1BE01A7
:10076000C8010E9436108823E9F0BE01C8010E942A
:10077000BA0D8823B9F08A81882369F001158CE5C8
:10078000180731F00E3D1C4531F40E94B61C0AC01A
:100790000E94860307C0CE01DF91CF911F910F9178
:1007A0000C941B0380E0DF91CF911F910F9108956E
:1007B00080E090E008950895382F262F872F90E04D
:1007C0006CE070E00E945729FC01832F90E060E309
:1007D00070E00E9457298E0F9F1FFC01E20FF11D50
:1007E000EE0FFF1FE451FF4F859194910895880FFC
:1007F000991FFC01E45FFD4F859194910895CF937B
:10080000DF930E94DC030E941E05EC0181159045D8
:1008100008F041C0C11580E4D80708F0D6C0C83E32
:10082000D10510F5C03ED10508F004C1C83AD10584
:1008300078F4C53AD10508F0A7C0C130D10509F454
:10084000F9C008F4F5C0C430D10508F0F3C0F0C019
:10085000CF3BD10508F4A0C0C03CD10508F4E8C0E6
:10086000CE01805C9109A3C0C11590E2D90758F46C
:10087000C11521E0D20708F0DDC0C03FD10508F462
:10088000D7C0D065D7C0C11580E3D80708F093C0A2
:10089000CE019F708CC0C11595E5D90708F048C0FE
:1008A000C11524E5D20708F0A9C0C11582E5D80713
:1008B00020F5C11591E5D90708F08AC0CE01F4E012
:1008C00096958795FA95E1F7282F23703C2F337082
:1008D00081E090E002C0880F991F3A95E2F79C688A
:1008E000922BCF70C695C695D0E0A5E0CC0FDD1F4A
:1008F000AA95E1F7C82BD92B9DC09E012370332701
:100900008C2F86958695C115D34508F066C0C1E049
:10091000D0E002C0CC0FDD1F2A95E2F790E075E031
:10092000880F991F7A95E1F7C82BD92BDC6882C014
:10093000C11529E5D207A0F4C11588E5D80708F04C
:1009400062C0C11596E5D90708F072C08C2F0E94CD
:10095000B2058F71C82FD0E0DC2FCC27D0626AC0DF
:10096000C1152AE5D20708F453C0CE01905681156F
:10097000904208F05DC08D2F8F710E94B205DD2777
:10098000D0628F71D82B56C0C55AD0E0C75ADE4FFF
:10099000C881D0E0D0644EC0C85AD0E0CC0FDD1F73
:1009A000C55DDE4F0990D881C02DD46443C00E943C
:1009B000F703EC013FC0CE019927D3FF03C0EC0140
:1009C000D86C38C0EC01D06C35C0DF70D06A32C052
:1009D000DC2FCC27C16FD06A2DC0C1E0D0E002C0AF
:1009E000CC0FDD1F2A95E2F790E065E0880F991F94
:1009F0006A95E1F7C82BD92BDA681CC0DC2FCC270D
:100A0000C46FD06A17C0DC2FCC27C06FD06A12C069
:100A10008C2F8F700E94B20594E0D695C7959A9559
:100A2000E1F7CF70D0E0DC2FCC27D069C82B02C013
:100A3000C0E0D0E0CE01DF91CF91089582389105DA
:100A400069F1B0F48133910509F46DC048F489323D
:100A5000910509F463C08A32910509F469C00895CB
:100A60008533910509F455C089339105B9F008958E
:100A7000833E910569F138F4803E9105B1F0823EE4
:100A8000910509F10895863E9105A9F1873E9105EA
:100A9000B9F1843E910509F064C023C02091FA02A7
:100AA00020FD4FC021FD4DC008958091FA0280FDC8
:100AB00044C08091FB0280FF44C08091FA0284FD13
:100AC00042C083EE4DC08091FA0282FF38C0F5CF5C
:100AD0008091FA0282FD33C08091FB0280FD31C01B
:100AE000ECCF8091FB0281FF32C08091FA0284FD3D
:100AF0002AC087EE35C08091FA0283FF26C0F5CF69
:100B00008091FA0283FD21C08091FB0281FD1FC00C
:100B1000ECCF8091FA0285FD1CC01DC08091FA02C5
:100B200085FD19C016C08091FA0286FD16C017C057
:100B30008091FA0286FD13C010C089E311C082EED5
:100B40000FC080EE0DC080E00BC086EE09C084EEC1
:100B500007C089E205C085E303C08AE201C081E3E2
:100B600090E008959091FA0292FF0DC0282F28710D
:100B7000283019F4877F846006C0282F2471243020
:100B800011F48B7F886093FF0DC0282F28712831C6
:100B900019F4877E846106C0282F2471243111F452
:100BA0008B7E88612091FB0220FF0DC0382F3871A9
:100BB000383019F4877F816006C0382F31713130A9
:100BC00011F48E7F886021FF0DC0282F28712831F5
:100BD00019F4877E816106C0282F2171213111F41B
:100BE0008E7E886194FD877E0895E82FF0E0EE0FF9
:100BF000FF1FEF52FD4F808191810895089580EA93
:100C00008A95F1F7089508950C9403060C94030651
:100C1000CF93DF93A8E6B1E04CE651E061E070E0ED
:100C20008D91E82FE295EF70F0E021A18F70EB013C
:100C300002C0CC0FDD1F8A95E2F7CE019C2F909564
:100C4000922391A392A1892B82A34A175B0741F7B4
:100C5000ACE5B1E041E050E08D91E82FE295EF7016
:100C6000F0E021A18F70BA0102C0660F771F8A954C
:100C7000E2F7CB01962F9095922391A392A1892B15
:100C800082A371E0A836B70739F71092CA02109212
:100C9000C9021092D2021092D1021092CC0210928C
:100CA000CB021092D4021092D3021092CE02109274
:100CB000CD021092D6021092D5021092D00210925C
:100CC000CF021092D8021092D70284E00E94F90657
:100CD000DF91CF910C946B036F927F928F929F92D2
:100CE000AF92BF92CF92DF92EF92FF920F931F933A
:100CF000CF93DF9388E6C82E81E0D82E09EC12E06E
:100D000091EDA92E92E0B92E712C88248394912C18
:100D1000F60181916F01C82FC295CF70D0E099A1E3
:100D20008F70740101C0EE0C8A95EAF7892F8E2925
:100D300089A38AA16E2C609486218AA30E94FF0554
:100D4000ECE5F1E040E050E020E030E06191A62FDA
:100D5000A295AF70B0E090968C9190E06F7002C059
:100D6000959587956A95E2F780FD08C0C401042E29
:100D700002C0880F991F0A94E2F702C080E090E059
:100D8000282B392B4F5F5F4F4C305105F9F689A165
:100D9000682269A28AA1E82AEAA2F80180819181E9
:100DA0002817390721F03183208381E001C080E0DA
:100DB000782A0E5F1F4FA016B10609F0A9CF272D84
:100DC00044E061ED72E089EC92E00E94FA060E9434
:100DD0007303872DDF91CF911F910F91FF90EF90BB
:100DE000DF90CF90BF90AF909F908F907F906F904B
:100DF00008950895FF920F931F93CF93DF93F82EDA
:100E0000092F162FD72FC42F222349F081E080937A
:100E1000CA010E94051E9093C9018093C801809168
:100E2000CA018823D9F08091C8019091C9010E941C
:100E3000111E069798F0EF2DF02FA12FBD2F80E007
:100E400090E04C2F50E08417950734F421913191B4
:100E50002D933D930196F7CF1092CA01DF91CF9168
:100E60001F910F91FF900895EF92FF920F931F93A0
:100E7000CF93DF93E82FF0E0711106C0EA5DFC4FDD
:100E80006491762F862F67C0262F30E0C72FD0E0E1
:100E9000EA5DFC4FE491EE2EF12CC90166E070E0B2
:100EA0000E9457290FEF10E0B8010E947429DB015E
:100EB000220F331FCB016BEA7FEF0E945729820F6D
:100EC000931F282F220F280FC8018C1B9D0BB701E1
:100ED0000E945729492F30E0C901BE010E945729BD
:100EE000692F70E0C801861B970BB7010E94572934
:100EF000F92FC801821B930BBE010E945729292F8D
:100F000030E0C801821B930BB7010E945729A23021
:100F1000B10579F038F41097D1F01197A1F4842F2E
:100F20007F2F18C0A430B10559F030F0169779F032
:100F30000AC0892F742F0EC08E2F742FEF2F0AC076
:100F40008E2F792F02C08F2F7E2FE42F03C0842F86
:100F50007E2FE92F6E2FDF91CF911F910F91FF9080
:100F6000EF9008950895CF93DF93762FE901682FCE
:100F7000842F0E943407798368838A83DF91CF911D
:100F800008958091D902282F269530E0211531054A
:100F900019F48170826005C02B32310524F0817014
:100FA00084658093D902089588E090E00C94152A16
:100FB000CF92DF92EF92FF926B017C010E94C107FA
:100FC000B701A60188E090E0FF90EF90DF90CF900E
:100FD0000C94332AE9EDF2E083E0808311828FEFF5
:100FE00082838383148260817181828193810C94D6
:100FF000D8078091D90280FF02C08695089580E0CD
:1010000008958091DD02833018F48F5F8093DD02B4
:101010006091D9027091DA028091DB029091DC023A
:101020000C94D8078091DD02882319F081508093B9
:10103000DD026091D9027091DA028091DB02909119
:10104000DC020C94D80770E00C942B0E3091070151
:101050008091D90280FF0CC08091060190E063E08E
:1010600070E00E945729632F82529D4F0C942308F1
:101070002091080140910901241770F7822F90E018
:1010800063E070E00E945729FC01E252FD4F11829B
:10109000108212822F5FF0CFA82FB62F8091D90235
:1010A00080FF16C02091080130910901231770F4C8
:1010B000822F90E063E070E00E945729FC01E25229
:1010C000FD4FA183B08342832F5FF0CF0C9426089D
:1010D0000895CF93DF9300D01F92CDB7DEB79091E4
:1010E000D90290FF0AC09E012F5F3F4F0E94B307B5
:1010F0004B8169818A810E944C080F900F900F905C
:10110000DF91CF910895CF93DF93EC01EC81F0E074
:10111000EF5DFD4F4491E9EDF2E0628181810E9433
:1011200069088C818F5F8C83DF91CF910895CF9375
:10113000DF93EC01E9EDF2E0438162818C810E9452
:1011400069088C818F5F8C83DF91CF9108950F9315
:101150001F93CF93DF9300D01F92CDB7DEB78C01E2
:101160008091CB0181110AC09E012F5F3F4F4FEF4D
:101170006FEF0E94B3078A818093CB01F8018481CD
:10118000813051F028F0823061F44091CB010AC0E7
:101190008091CB0140E007C06091CB0140E080E04E
:1011A00003C040E080E060E00E944C08F8018481C8
:1011B00090E0019663E070E00E94882984830F909C
:1011C0000F900F90DF91CF911F910F910895AF92E3
:1011D000BF92CF92DF92EF92FF920F931F93CF9324
:1011E000DF9300D01F92CDB7DEB7182FF62E042F55
:1011F000E22E9091D90290FF6EC0E92FE695AE2FB6
:10120000B0E0A459BE4F8C918093FD019E7F923037
:1012100061F49E012F5F3F4F812F0E94B3074B81E6
:1012200069818A810E944C0844C0823019F400917F
:10123000DC023FC0863019F41091DA023AC08930DE
:10124000D9F38931B1F5E9514E2F4170D42EE6958D
:10125000F0E0EF5DFC4FA590B490C12CBB24409111
:101260000A01C41620F52C2D30E0C501B9010E94F9
:101270005729642F70E00E947429E12FD11002C019
:10128000E60F01C0E61B80910801A901480F511D1E
:10129000CA0163E070E00E9457299C0122523D4F31
:1012A000402F6F2D8E2F0E94B307C394D8CF0E947A
:1012B00026081093DA02F092DB020093DC02EE20A3
:1012C00051F06091D9027091DA028091DB02909125
:1012D000DC020E94D8070F900F900F90DF91CF9102
:1012E0001F910F91FF90EF90DF90CF90BF90AF9044
:1012F0000895E9EDF2E09181282F4381628188E031
:10130000890F0C94E70881E00C947909E9EDF2E08B
:101310009181282F4381628188EF890F0C94E7081F
:1013200081E00C948609E9EDF2E0628128E0620F29
:1013300008F46FEF282F438181810C94E70881E046
:101340000C949309E9EDF2E0628128E0621B08F455
:1013500060E0282F438181810C94E70881E00C94A0
:10136000A209E9EDF2E0438128E0420F08F44FEFD3
:10137000282F628181810C94E70881E00C94B109E7
:10138000E9EDF2E0438128E0421B08F440E0282F19
:10139000628181810C94E70881E00C94C00920E00F
:1013A0000C94E708EF92FF921F93CF93DF93EC0129
:1013B00010E0EE24EA94F12C30910A01131700F5A5
:1013C00020910801812F90E0820F911D63E070E071
:1013D0000E945729FC01E252FD4F632F70E0C701C4
:1013E0000E948829812F0E944E299C819F01409153
:1013F000DC026091DB02890F0E94B3071F5FDCCF24
:101400000E9426089A818C8190FF02C08F5F01C0E4
:1014100081508C83DF91CF911F91FF90EF900895C1
:10142000BF92CF92DF92EF92FF920F931F93CF93D1
:10143000DF93FC01828180FF02C0DFEF01C0D1E0B9
:10144000C0E080910A01C81708F040C080910801EF
:10145000CC2ED12C9601280F311DC90163E070E01C
:101460000E94572982529D4F7C01FC0111821082FB
:10147000128204E010E0B12C8091CD018B0D8930F7
:1014800014F0877005C087FF03C090910A01890F8F
:10149000082E000C990BC816D90691F48091DC0235
:1014A00090E0B8010E945729959587959595879565
:1014B0009701482F6091DB028091DA020E94B30706
:1014C000BD0E01501109C1F6CF5FBBCF0E942608A7
:1014D0008091CD01D13031F4811102C080910A0197
:1014E000815007C090E0019660910A0170E00E946F
:1014F00088298093CD01DF91CF911F910F91FF90AB
:10150000EF90DF90CF90BF900895CF932091080186
:1015100030910901231770F4822F90E063E070E0AE
:101520000E945729FC01E252FD4F11821082128263
:101530002F5FF0CFC0E060910A01C61790F5EC2F45
:10154000F0E070E0CF010E94882990910801890F96
:101550002091CC01022E000C330B90E063E070E090
:101560000E945729E217F307A4F020910501022EEB
:10157000000C330B2E173F0764F09C0122523D4FA5
:101580004091DC026091DB028091DA020E94B30795
:1015900006C0FC01E252FD4F118210821282CF5F21
:1015A000CACF0E942608209104018091CC01820FAD
:1015B0008093CC0190910501920F9093050119162B
:1015C0005CF4082E000C990B40910A0150E0415048
:1015D0005109841795071CF0219520930401CF91A0
:1015E00008950F931F93CF938C01FC018481958103
:1015F00001968170992795838483C0E080910A01C8
:10160000C81700F5209108018C2F90E0820F911DE2
:1016100063E070E00E9457299C0122523D4F4C2FFD
:101620004695F80184819581840F911D817065E54F
:101630000E944E294091DC026091DB020E94B307B8
:10164000CF5FDCCFCF911F910F910C9426080F93A1
:101650001F93CF93DF93EC0100E010E040910A016B
:10166000842F90E0081719072CF580910801980144
:10167000280F311DC90163E070E00E9457299C01C9
:1016800022523D4F469550E08C81041715071CF4FB
:10169000882331F002C0811103C04091DC0201C0F7
:1016A00040E06091DB028091DA020E94B3070F5F95
:1016B0001F4FD4CF0E9426088C8190E00196817044
:1016C00099278C83DF91CF911F910F9108959F925D
:1016D000AF92BF92CF92DF92EF92FF920F931F9340
:1016E000CF93DF93FC010281A48081E0848310E02A
:1016F0008BE4B82E99249394EE24EA94F12C2BE4F5
:10170000C22ED12C80910A01181708F096C0C12F63
:10171000D0E0CE0165E070E00E945729FC01E25361
:10172000FE4FA11003C0138212826BC023812223BB
:10173000A1F1215023834481442319F03B2D321B16
:1017400001C0322FCE0165E070E00E945729FC01F4
:10175000E253FE4F8091DC02632F70E090E00E9424
:101760005729B6010E9474296283211104C04423C1
:1017700011F01482B382033008F043C0CE0165E05B
:1017800070E00E945729FC01E253FE4F8091DA027B
:1017900080838091DB02818334C00E94F0298230F3
:1017A00091407CF5033038F00E94F029B7010E9487
:1017B0008829282F02C02091DA02CE0165E070E06E
:1017C0000E94572982539E4FFC012083033058F01A
:1017D0000E94F0292091DB022695622F70E00E9482
:1017E0008829280F02C02091DB02CE0165E070E05D
:1017F0000E945729FC01E253FE4F21831282B382DB
:101800009482809108019E01280F311DC90163E077
:1018100070E00E9457299C0122523D4FCE0165E0A5
:1018200070E00E945729FC01E253FE4F4281618122
:1018300080810E94B3071F5F65CFDF91CF911F9119
:101840000F91FF90EF90DF90CF90BF90AF909F905F
:101850000C942608E9EDF2E080818E7F8083608120
:101860007181828193810E94D8071092FE012FEF2F
:1018700080E792E0215080409040E1F700C00000F6
:101880000C9426086091D902669570E04BE050E018
:101890008BE091E00E94002A892B19F481E080936B
:1018A000FE010E94051E9093F7018093F6010895B2
:1018B0009091D90290FF35C09170811102C0926061
:1018C00006C08B3210F0946502C0880F982B90935D
:1018D000D902662351F06091D9027091DA028091A9
:1018E000DB029091DC020E94D8076091D9026695D4
:1018F00070E04BE050E08BE091E00E94002A892BE1
:1019000019F01092FE0102C00E94420C81E0809307
:10191000F9014091DC026091DB028091DA020C94C3
:10192000CF090895682F9091D902969581E0890F8B
:101930008B3208F081E00C94580C81E00C94920CEE
:10194000682F9091D90296958FEF890F09F48AE25A
:101950000C94580C81E00C94A00C61E00C94580C91
:10196000E9EDF2E080818160808386950C94AD0C76
:101970008091D90280FD0C942A0C0C94B00C60E08C
:101980000C94580C8091FC0181112EC00E940C1CFB
:10199000811104C00E94B61C0E94EA070E94D4076D
:1019A0006093D9027093DA028093DB029093DC0299
:1019B0006E7F61F40E94EA070E94D4076093D90207
:1019C0007093DA028093DB029093DC020E94C107DD
:1019D0001092FE018091D90280FF03C086950E947B
:1019E000BF0C81E08093FC0108950F931F93CF9368
:1019F000DF938091FE01882309F49CC08091FD0152
:101A0000E091D902E695E81BE093F801823049F4B1
:101A1000F0E0E35EFD4FE491CE2FD0E003E818E064
:101A200059C0863049F4F0E0E65EFD4FE491CE2FD8
:101A3000D0E007E918E04EC0893051F4E695F0E0B7
:101A4000E95EFD4FE491CE2FD0E002ED19E042C0F7
:101A50008F3051F4E695F0E0EC5EFD4FE491CE2F2F
:101A6000D0E000E11AE036C0853149F4F0E0EF5EE5
:101A7000FD4FE491CE2FD0E005E81AE02BC088316D
:101A8000D9F0833239F4EFE0F2E0C591D49107EA5E
:101A900018E020C08432A9F08532C1F48E2F63E0B3
:101AA0000E946829E92FF0E0E45FFD4FE491CE2F1A
:101AB000D0E007E61BE00EC0C8EED3E001EF1AE06D
:101AC00009C0C4EFD1E007E21BE004C0C0EDD7E0DD
:101AD00002EB17E08091F901882389F01092F90157
:101AE0000E94051E9E0120953095820F931F9093B2
:101AF000F7018093F6011092FB011092FA01809198
:101B0000F6019091F7010E94111E8C179D0790F02D
:101B1000E091F601F091F701CE0FDF1FD093F701AE
:101B2000C093F60186EF91E0F801DF91CF911F910C
:101B30000F910994DF91CF911F910F910895882300
:101B400011F0FA0101C0FB010994CF93DF93C82F74
:101B5000D62F0E94F9078C1740F00E94F9078D17C5
:101B600020F4DF91CF910C949D0C8C2FDF91CF91BD
:101B70000C94AD0C0F931F93CF93FB01C281CC2328
:101B800009F463C08C010E945B1B8272F801E25C65
:101B9000FC45E431F10508F059C0E65CFF4F0C94B8
:101BA0009C290E94B80C06C04AEA5CE06DE97CE022
:101BB0000E949F0DC0E04AC04DE95CE06AEA7CE00B
:101BC000F7CF40E959E063E879E0F2CF43E859E024
:101BD00060E979E0EDCF4EEA59E06FE979E0E8CFCE
:101BE0004FE959E06EEA79E0E3CF4CEC59E06DEB58
:101BF00079E0DECF4DEB59E06CEC79E0D9CF42E1F2
:101C000058E061E078E0D4CF41E058E062E178E06C
:101C1000CFCF81E017C065E082E010C068E086E0C9
:101C20000DC06EE089E00AC064E18FE007C067E1A3
:101C300085E104C088E106C062E289E10E94A50D49
:101C4000B9CF83E20E94AD0CB5CFC1E08C2FCF910C
:101C50001F910F9108953E9A28B12F7B38B13064BF
:101C60004FB7F894FC01CB0163E070E00E94572964
:101C70008E0F9F1FE817F90789F0519168E038B976
:101C8000000000C057FF28B9550F000000C000C079
:101C900000C028B900C06A9591F7ECCF4FBF8FE51F
:101CA00094E00197F1F700C0000008950F931F938F
:101CB000CF93DF93C62FD42F122FFC01828188236C
:101CC000C9F0609301020E94051E90930002809368
:101CD000FF0180E28C0F883008F057C0C77081E0A8
:101CE00001C0880FCA95EAF7DF91CF911F910F913C
:101CF0000C94F21280910102681330C08091FF01B0
:101D0000909100020E94111E883C910538F500E276
:101D10000D0FCD17B9F080E28C0F883040F4C770FA
:101D200081E001C0880FCA95EAF70E94F9120830D5
:101D300028F581E09D2F977001C0880F9A95EAF7EA
:101D40000E94F212812F0E94DF120830F0F4D77047
:101D500081E001C0880FDA95EAF70AC080E28C0FB3
:101D6000883098F4C77081E001C0880FCA95EAF7FF
:101D7000DF91CF911F910F910C94F912812FDF9178
:101D8000CF911F910F910C94DF12DF91CF911F9192
:101D90000F9108959C01CB01233F4CE53407F9F0E6
:101DA00078F4283DFCE53F07B9F0293D4CE53407C0
:101DB00011F1273D3C4531F526E241EE61EE1EC0B2
:101DC000253FFCE53F0799F070F0263F3C45D1F4F4
:101DD00027E245EE66EE12C027E245EE0EC026E28F
:101DE00041EE60EE0BC027E245EE64EE07C026E24E
:101DF00041EE62EE03C028E241E065EE0E94560E1D
:101E000080E00895FC018281882319F0109201027C
:101E1000089581E00895CF93DF93EC01FB01828167
:101E2000882309F41FC1C230FCE5DF0708F41BC199
:101E3000C6319CE5D90738F09E012A5F3C45293020
:101E4000310508F010C10E94291C9093FB02809379
:101E5000FA02C031ECE5DE0709F4C3C008F041C066
:101E6000C8308CE5D80709F49AC0F0F4C430ECE52A
:101E7000DE0709F487C068F4C2308CE5D80709F49E
:101E800077C0C330DC4509F0E3C08091FA0282607C
:101E900076C0C630ECE5DE0709F46EC008F07BC002
:101EA0008091FA0288606BC0CC308CE5D80709F4C9
:101EB00085C068F4CA30ECE5DE0709F474C008F0A8
:101EC00079C00E9482158091FA02806858C0CE3095
:101ED0008CE5D80709F476C008F07FC08091FA023B
:101EE0008BC0CB3FECE5DE0709F44FC018F5C331DA
:101EF0008CE5D80709F47DC078F4C131ECE5DE0744
:101F000009F473C0C231DC4509F0A2C00E948215F9
:101F10008091FA028F7733C0C5318CE5D80709F478
:101F200072C008F486C0CA3FDC4509F091C08091B8
:101F3000FB023EC0CF3FFCE5DF0709F45FC058F469
:101F4000CD3F9CE5D90709F444C008F43FC0809117
:101F5000FB0282602DC0C130FDE5DF0709F475C0CA
:101F600008F45DC0C230DD4509F072C080E06EC08B
:101F70008091FA02816003C08091FA0280618093AF
:101F8000FA0266C08091FA0211C08091FB02826061
:101F90008093FB025DC08091FA028062F0CF809155
:101FA000FA028064ECCF8091FA0288608460E7CF07
:101FB0008160EECF8091FA028E7FE1CF8091FA02AC
:101FC0008D7FDDCF8091FA02877FD9CF8091FB0290
:101FD00018C08091FB028D7FDBCF8091FA028F7E4B
:101FE000CECF8091FA028F7DCACF8091FA028F7B8B
:101FF000C6CF8091FA02877F8B7FC1CF8091FB0291
:102000008D7F8E7FC5CF8091FA0282FB222720F937
:1020100091E0922790FB82F990FB83F9B0CF8091F9
:10202000FB02982F909591708E7F892B90FB81F900
:10203000AFCF0E9482158091FA0287FB222720F9F8
:1020400091E0922790FB87F99ACF81E00E94B81C1B
:102050008091FA029091FB020E943A1C0E94821524
:1020600080E001C081E0DF91CF910895CF93DF93AD
:1020700086319C4541F5EB010E945B1B982F8A81BC
:102080002091160130911701882379F09A7A81E026
:1020900009F480E080930202911102C069E201C05C
:1020A00065E3C9010E94531D0AC08091020281119B
:1020B00002C069E201C065E3C9010E945E1D0E9481
:1020C000A91B80E001C081E0DF91CF91089590933A
:1020D0000802809307020895E0910702F091080238
:1020E000309721F00190F081E02D099480E008956F
:1020F000E0910702F0910802309799F020912A01AF
:10210000222359F02091FA0227FF07C0DC012C910D
:1021100011962C93119725E02C930280F381E02DEA
:1021200009940895E0910702F0910802309739F080
:1021300022E0DC012C930480F581E02D09940895C0
:1021400020910502309106022817390771F090930B
:10215000060280930502E0910702F0910802309791
:1021600021F00680F781E02D099408952091030263
:10217000309104022817390771F09093040280937C
:102180000302E0910702F0910802309721F00084E9
:10219000F185E02D0994089508950C94CC100C94C9
:1021A000CD100C94CC100C94CC100E94D1100C9437
:1021B000CF1081E008950C94D9100E94FC1D0E945C
:1021C00008060E94B61E0E94C20C0C94D3107F9287
:1021D0008F929F92AF92BF92CF92DF92EF92FF9237
:1021E0000F931F93CF93DF93CDB7DEB72A970FB628
:1021F000F894DEBF0FBECDBF0E946C060E94DB10BC
:10220000811111C08FEF89838A831B820E94051E72
:102210008160782F9D838C8349815A816B818D8168
:102220000E9499114FC04AE0A42E42E0B42E00E073
:1022300010E0702E802F0E94F5056C01F501819051
:1022400091905F01882699268114910431F40F5FE3
:102250001F4F0430110569F7D5CF8091960281FD9B
:102260000E94FE0580E0EE24E394F12C94012E21DF
:102270003F21232B09F18E837F82CE20DF2081E056
:10228000CD2809F480E088870E94051E8160782FA0
:102290009A8789874E815F8168858A850E94991116
:1022A000000F111FF801E65FFD4F80819181E82644
:1022B000F926F182E08206C08F5FEE0CFF1C8C30A5
:1022C000A9F6C5CF0E94F50C0E946E210E946C10E9
:1022D000909109028917C9F00E946C10809309023D
:1022E0002A960FB6F894DEBF0FBECDBFDF91CF9117
:1022F0001F910F91FF90EF90DF90CF90BF90AF9024
:102300009F908F907F900C947C032A960FB6F89440
:10231000DEBF0FBECDBFDF91CF911F910F91FF9018
:10232000EF90DF90CF90BF90AF909F908F907F9075
:102330000895CF93DF93CDB7DEB72B970FB6F89400
:10234000DEBF0FBECDBF4F83588769877A878B87E3
:10235000DE01119686E0FD0111928A95E9F785E08C
:10236000FE01379601900D928A95E1F749815A81D5
:102370006B817C818D819E810E943A182B960FB6CD
:10238000F894DEBF0FBECDBFDF91CF910895FC0161
:10239000808191810E941C1B0895CF93882309F4AA
:1023A000A4C0C82F8238C1F40E946C1081FD9DC06A
:1023B00069E380911601909117010E94531D0E94BC
:1023C000A91B2FEF81EE94E0215080409040E1F76F
:1023D00000C0000069E319C0833801F50E946C1049
:1023E00080FD83C063E580911601909117010E94E2
:1023F000531D0E94A91B2FEF81EE94E021508040D5
:102400009040E1F700C0000063E5809116019091D3
:1024100017010E945E1DCF910C94A91B8438C1F452
:102420000E946C1082FD61C067E48091160190915A
:1024300017010E94531D0E94A91B2FEF81EE94E00B
:10244000215080409040E1F700C0000067E4DDCFFC
:102450008CEF8C0F813AD0F46C2F80911601909103
:1024600017010E94D31C882349F06C2F809116011C
:10247000909117010E945E1D0E94A91B6C2F8091F4
:102480001601909117010E94531DC5CF80E28C0F59
:10249000883048F4C77081E001C0880FCA95EAF718
:1024A0000E945E1BB8CFEBE5EC0FE33040F4F0E0A8
:1024B000EB53FE4F808190E0CF910C94A010E8E5A3
:1024C000EC0FE73150F4F0E0EE0FFF1FE956FE4F3E
:1024D00080819181CF910C94B610C03F30F08C2F49
:1024E0000E947620CF910C946321CF910895882388
:1024F00009F464C0823879F40E946C1081FF5EC0D8
:1025000069E380911601909117010E94531D0E946A
:10251000A91B69E310C08338B1F40E946C1080FFDE
:102520004DC063E580911601909117010E94531DE3
:102530000E94A91B63E580911601909117010E94EA
:102540005E1D0C94A91B843879F40E946C1082FFE4
:1025500035C067E480911601909117010E94531DC8
:102560000E94A91B67E4E7CF9CEF980F913A10F403
:10257000682FE1CF90E2980F983050F4877091E087
:1025800001C0990F8A95EAF7892F0E94641BD9CF61
:102590009BE5980F933020F480E090E00C94A0101D
:1025A00098E5980F973120F480E090E00C94B610F5
:1025B000803F20F00E94DE200C9463210895CF9389
:1025C000C82F0E94CD11C93349F42FEF87EE93E055
:1025D000215080409040E1F700C000008C2FCF9147
:1025E0000C947712882321F00E945E1B0C94A91B87
:1025F0000895882321F00E94641B0C94A91B089560
:10260000CF92DF92EF92FF920F931F93CF93DF93BE
:102610007C01062FC72FFC01158112951F70D281F6
:10262000D1110E947B1B0E94541B882399F0DD234B
:1026300089F08C2F807F803421F080E2800F8830F9
:1026400048F082E00E94F31B0E94541B91E0D82EB8
:10265000D92601C0D12CCC2EC2948FE0C8228C2D5B
:1026600090E0FC01E25BFF4F0C949C298C2F807F53
:10267000CF70882311F0C295C07FDD2399F0CC2361
:1026800009F48DC180E2800F883010F0011104C080
:102690008C2F0E945E1B03C08C2F0E946E1B0E9419
:1026A000A91B7DC1802F0E947712CC2309F49CC105
:1026B00080E2800F883010F0011104C08C2F0E943E
:1026C000641B03C08C2F0E94741B0E94A91B8CC129
:1026D0008C2F807FCF70803211F0C295C07F002395
:1026E00019F00130C9F022C0DD2371F0112341F04F
:1026F000113031F40E948E1B8C2B0E94961B74C1EA
:102700000E948E1B8C2B1DC0112319F0113009F46F
:102710006BC10E949F1B25C0DD2321F0163008F0FD
:1027200063C10EC0153008F05FC11BC0DD2361F02E
:10273000112331F0F701858180FF31C18F708583CE
:102740008C2F0E94F21250C1112359F0093309F065
:1027500037C1FFEF27EE83E0F15020408040E1F7E2
:102760002DC18C2F0E94F9123FC18C2F8695869522
:10277000837019F0813061F037C1DD2321F0802FA3
:102780009C2F937002C080E090E00E94A01034C1A2
:10279000DD2321F0802F9C2F937002C080E090E019
:1027A0000E94B61029C1802FDD2319F00E947620E7
:1027B00002C00E94DE200E9463211EC18C2F837004
:1027C00009F045C0D11114C1402F4295469547707C
:1027D000440F440F602F6F70862F90E0A0E0B0E0B0
:1027E000042E04C0880F991FAA1FBB1F0A94D2F79A
:1027F00004FF10C00FE010E020E030E004C0000F44
:10280000111F221F331F4A95D2F70095109520956E
:10281000309503C000E010E09801C695C695C370DE
:10282000BC01CD01602B712B822B932BC23049F060
:1028300058F4C13019F00E949019DAC00E947E1934
:10284000D7C00E94A219D4C00E947C19D1C0DD2338
:1028500019F08C2F817001C08695882309F4C8C0B7
:10286000402F429546954770440F440F602F6F707C
:10287000862F90E0A0E0B0E0042E04C0880F991FDE
:10288000AA1FBB1F0A94D2F704FF10C00FE010E08C
:1028900020E030E004C0000F111F221F331F4A95B3
:1028A000D2F7009510952095309503C000E010E018
:1028B0009801C695C695C370BC01CD01602B712BE4
:1028C000822B932BC23049F058F4C13019F00E948A
:1028D000551A8EC00E94431A8BC00E94671A88C086
:1028E0000E94B61985C0CF70DD2339F08C2F0E946D
:1028F000DC19802F0E94F2127BC0802F0E94F912F7
:102900008C2F0E94FD1974C0023F01F128F4003F92
:1029100041F0013FA1F03FC0033FF9F0043F39F11E
:102920003AC0DD2341F0153008F05EC08C2F8F7166
:102930000E94221A59C0163008F056C0F7CFDD2386
:1029400039F08C2F8F710E94DC194EC0DD23C9F342
:102950008C2F8F710E94FD1947C0DD2329F08C2F29
:102960008F710E94C71940C00E94C2193DC0DD236B
:1029700049F0CF718C2F0E94DC1963E08C2F0E94EC
:10298000DE1B32C081E00E94F31B123068F182E04E
:102990000E94F31B29C0DD2331F0112391F2802F17
:1029A0000E94CD1121C0112399F2093349F49FEF00
:1029B000E7EEF3E09150E040F040E1F700C00000A6
:1029C000802F0E94771210C04C2F4F70602FC701CC
:1029D0000E94D8030E94ED180FC04C2F4F70602F3B
:1029E000C7010E94DB0308C088EF8C0D843020F4FF
:1029F0000E946C100E947C03DD20C9F00E94501BD5
:102A000080FD15C0F70112820E944A1B0E94DC194A
:102A1000C7010E9438150E944A1BDF91CF911F9178
:102A20000F91FF90EF90DF90CF900C94FD19DF9104
:102A3000CF911F910F91FF90EF90DF90CF9008956D
:102A40000F931F93CF93DF93EC01688179818A8183
:102A50000E94271B8C010E94791A0E946A19B801F2
:102A6000CE010E940013DF91CF911F910F91089525
:102A7000CF93DF93EC01988189812B813C81232BBB
:102A800031F08F3F31F481E09F3F19F403C081E0C2
:102A900001C080E080FD19C0CE010E949503811124
:102AA0000CC00E94541B882381F08A81882369F01E
:102AB00082E0DF91CF910C94F31BCE010E94201590
:102AC000CE01DF91CF910C946003DF91CF910895F7
:102AD0000E947B1B0E948B1B0E94A91B0E949B22B1
:102AE0000E94632180E090E00E94A01080E090E0CE
:102AF0000C94B61080911601909117010E94691DE7
:102B00000C9468150E946B1B0C947A15E92FE295C2
:102B1000EF704E2F50E0FA013297EE30F105B0F42D
:102B2000E25AFF4F0C949C29803F91F018F4883EA4
:102B300068F40EC0843F51F40BC0883E48F0813FDA
:102B400029F406C093FB882780F9089580E0089552
:102B500081E008950E941C1B0E9486150895CF9362
:102B6000DF9300D000D01F92CDB7DEB70F900F904B
:102B70000F900F900F90DF91CF910895CF93DF9337
:102B800000D000D000D0CDB7DEB726960FB6F894AF
:102B9000DEBF0FBECDBFDF91CF910895CF93DF93FE
:102BA000C091130280911402C817A1F0D0E0CE01A9
:102BB00066E070E00E945729FC01EB5EFD4F40810A
:102BC000518162817381848195810E94BE15219615
:102BD000C770E8CFDF91CF910895409145025091A1
:102BE000460260914702709148028091490290919B
:102BF0004A020C94BE151F93CF93DF9380914A0233
:102C000082958F7009F05CC080914702882309F497
:102C100057C02091130210911402C0914502D09127
:102C20004602A0914802B091490281E0CF3F09F0ED
:102C300080E0482F211709F443C0109721F0DF3FAF
:102C400021F080E003C081E001C0842F30E080FDEE
:102C500033C0C90166E070E00E945729FC01EB5EB9
:102C6000FD4F81818D1328C080818C1325C0828106
:102C7000811122C0838194818A1B9B0B883C910522
:102C8000D8F480914A028F70806180934A02C90112
:102C900066E070E00E945729FC01E65EFD4F9081DE
:102CA0009F709061908385E492E00E943815DF91D7
:102CB000CF911F910C94CE152F5F3F4F2770BACF45
:102CC000DF91CF911F9108959F92AF92BF92CF92C3
:102CD000DF92EF92FF920F931F93CF93DF93CDB7C5
:102CE000DEB761970FB6F894DEBF0FBECDBF8C0183
:102CF00085E0F801DE011D9601900D928A95E1F7BD
:102D0000F80140812181E280909145023091460294
:102D100060914802709149026115710531F03F3FA1
:102D200031F481E09F3F19F403C081E001C080E0ED
:102D3000F82FF1709F2E80FD4AC1F801A380B48066
:102D400085E4C82E82E0D82EF0904702F501E61BFC
:102D5000F70BFF2009F4E2C080914A02582F507F00
:102D6000E83CF10508F09CC0511155C0231313C075
:102D7000491311C0FE2CE1100EC08F70806180934A
:102D80004A020E94ED15C6010E94381580914A0240
:102D9000F80185835CC1AB2831F02F3F31F481E02D
:102DA0004F3F19F403C081E001C080E080FD03C003
:102DB00081E08E2502C080E090E0F82FF170FF2EB8
:102DC00080FF1FC0E091130230911402E31709F451
:102DD0001CC1F0E0CF0166E070E00E945729DC01E1
:102DE000AB5EBD4F11968C911197281307C08C9143
:102DF000481304C012968C91E81203C03196E77014
:102E0000E5CFFE2CEE2009F422C180914A028160B8
:102E100080934A025AC0231306C0491304C0E1102C
:102E200002C0F8019FC04D872E878D859E850E9428
:102E3000AA15882379F1EE2069F120914A02822FA8
:102E400082958F7090E0029774F080914502909186
:102E5000460298878F831986BB86AA862C87CE0167
:102E600007960E94381586E0F801A5E4B2E00190CB
:102E70000D928A95E1F70E94FB150E94ED150DC099
:102E8000231729F14D872E878D859E850E94AA15CF
:102E900081112CC0C8010E943815FF24F394D7C0BB
:102EA0005111EECF7A2DB98AA88A522F6E2D8989B9
:102EB0000E94AF1585E492E00E94381586E0F60185
:102EC00011928A95E9F70E94ED15F12CC0C04913C3
:102ED000D9CFE110D7CFF8018583C8010E943815FA
:102EE00086E0F60111928A95E9F7B1C0EE2091F2E1
:102EF00020914A02822F82958F7090E002970CF405
:102F0000B2CF80914502909146029A8389831B82B9
:102F1000BD82AC822E83CE010196A3CFE83CF105A1
:102F200008F047C0FE2CEE2009F4B4CF231330C0C4
:102F300049132EC020914A0220FD21C0822F829584
:102F40008F70482F50E041155105C9F0F8012583D5
:102F50004F30510541F08F5F982F9295907F822FCF
:102F60008F70892B8583C8010E94381586E0F8018F
:102F7000A5E4B2E001900D928A95E1F743C086E0A6
:102F8000F801A5E4B2E001900D928A95E1F75FC0E7
:102F90004D872E878D859E850E94AA15811163CF4E
:102FA00080914A02816080934A02C8010E943815CC
:102FB0004EC07A2DB98AA88A522F6E2D89890E9417
:102FC000AF1586E0F60111928A95E9F71BC0EE2055
:102FD00009F460CF4D872E878D859E850E94AA15A6
:102FE000F82E882309F456CF86E0F801A5E4B2E074
:102FF00001900D928A95E1F785E492E00E94C71155
:103000000E94FB150E94ED1522C04D872E878D85ED
:103010009E850E941C1B292F22952F70223028F498
:103020009F7039F0811105C00BC0243028F49F70C7
:1030300049F4805E883020F0C8010E9438159F2C2A
:10304000F92C05C0F8019581907F99F7F9CF8F2D64
:1030500061960FB6F894DEBF0FBECDBFDF91CF9162
:103060001F910F91FF90EF90DF90CF90BF90AF90A6
:103070009F900895CF93DF93CDB7DEB72C970FB60F
:10308000F894DEBF0FBECDBF4F83588769877A871C
:103090008B879C87CE0107960E9464168823D1F007
:1030A0009F8188852A853B85232B31F08F3F31F422
:1030B00081E09F3F19F403C081E001C080E080FD02
:1030C0006FC04F81588569857A858B859C850E9464
:1030D000BE1566C086E0FE013796DE0111960190AE
:1030E0000D928A95E1F7FF81E8856A857B856115F8
:1030F000710531F0EF3F31F481E0FF3F19F403C077
:1031000081E001C080E080FD4BC08091140290E01E
:103110009C012F5F3F4F277033274091130250E0EF
:103120002417350709F443C0F983EA837D836C8350
:1031300066E070E00E945729DC01AB5EBD4F96E06F
:10314000FE01319601900D929A95E1F720931402B9
:103150000E94CE1525C090E066E070E00E945729DD
:103160008B5E9D4F0E946416882371F1809113023B
:1031700090E066E070E00E945729FC01EB5EFD4F95
:103180004081518162817381848195810E94BE1545
:103190008091130290E00196877099278093130223
:1031A00080911302909114028913D5CF0DC00E9413
:1031B00082151092140210921302E5E4F2E086E008
:1031C000DF011D928A95E9F72C960FB6F894DEBFC1
:1031D0000FBECDBFDF91CF910895EF92FF920F9375
:1031E0001F93CF93DF938C01892B09F46CC0F12CD2
:1031F000EE24E394E8012196F8018491843740F4A9
:10320000843008F051C0813081F0823019F15BC008
:10321000853709F444C0A8F19CE7980F903708F06F
:1032200052C08F770E94771241C00E5F1F4FFE0180
:10323000849190E2980F983050F48770FE2D01C071
:10324000FF0F8A95EAF78F2F0E947E1B14C00E9401
:10325000CD112DC00E5F1F4FFE01849190E2980F9B
:10326000983060F48770FE2D01C0FF0F8A95EAF751
:103270008F2F0E94841B0E94A91B19C00E947712E5
:1032800016C00E5F1F4FFE01C491CC2381F08FE961
:103290009FE00197F1F700C00000C150F6CF0E5F2C
:1032A0001F4FFE01F49003C00E94CD118E018F2D9F
:1032B000882309F49FCFEFE9FFE03197F1F700C0D1
:1032C00000008150F5CFDF91CF911F910F91FF90BA
:1032D000EF900895089508950C946B190C946C194F
:1032E0000E946E1960936D0270936E0280936F025C
:1032F000909370020C9468150C9470190F931F939F
:1033000000916D0210916E0220916F023091700257
:10331000602B712B822B932B1F910F910C947019A2
:103320000F931F9300916D0210916E0220916F0216
:103330003091700260237123822393231F910F9198
:103340000C9470190F931F9300916D0210916E02EF
:1033500020916F0230917002602771278227932796
:103360001F910F910C9470190C946B190E94B41951
:103370006093690270936A0280936B0290936C026F
:103380000C94681560E070E0CB010C94B6190F93B3
:103390001F9341E050E060E070E08A019B0104C0AF
:1033A000000F111F221F331F8A95D2F7C901B801E0
:1033B0001F910F910C94B6190F931F9341E050E0A9
:1033C00060E070E004C0440F551F661F771F8A95A8
:1033D000D2F78091690290916A02A0916B02B0913C
:1033E0006C028A019B01082B192B2A2B3B2BC9014C
:1033F000B8011F910F910C94B6190F931F9341E0E0
:1034000050E060E070E004C0440F551F661F771F56
:103410008A95D2F740955095609570958091690294
:1034200090916A02A0916B02B0916C028A019B019B
:10343000082319232A233B23C901B8011F910F91A7
:103440000C94B6190F931F9341E050E060E070E0D8
:1034500004C0440F551F661F771F8A95D2F78091CD
:10346000690290916A02A0916B02B0916C028A018C
:103470009B01082719272A273B27C901B8011F915B
:103480000F910C94B6190F931F930091690210913C
:103490006A0220916B0230916C02602B712B822B9F
:1034A000932B1F910F910C94B6190F931F930091BA
:1034B000690210916A0220916B0230916C026023C4
:1034C0007123822393231F910F910C94B6190F93AC
:1034D0001F930091690210916A0220916B02309152
:1034E0006C0260277127822793271F910F910C94FC
:1034F000B6190895282F362F892F6CE00E944E2987
:10350000820F982F9770A1E001C0AA0F9A95EAF751
:1035100086958695869590E065E070E00E94572933
:10352000FC01E55BFD4F40E050E0632F70E09081CF
:103530009B01042E02C0369527950A94E2F721706C
:10354000219529272A23292721934F5F5F4F453053
:10355000510569F70895282F892F6CE00E944E29A4
:10356000820FA82FA77086958695869590E065E0D6
:1035700070E00E945729BC0140E050E080E0FB0170
:10358000E40FF51FE55BFD4F208130E00A2E02C0FD
:10359000369527950A94E2F721703327042E01C04F
:1035A000220F0A94EAF7822B4F5F5F4F4530510597
:1035B00031F70895BF92CF92DF92EF92FF920F936F
:1035C0001F93CF93DF938C01C0906902D0906A0261
:1035D000E0906B02F0906C0280916D0290916E020F
:1035E000A0916F02B0917002C82AD92AEA2AFB2A58
:1035F000CFE1D0E0D701C6010C2E04C0B695A79547
:10360000979587950A94D2F780FD04C0219790F78B
:10361000B12C07C0BC2EB8018C2F0E94FF0301976C
:10362000A9F38B2DDF91CF911F910F91FF90EF9018
:10363000DF90CF90BF900895CF93DF93EC010E946D
:10364000DA1ABE010E94FF03DF91CF9108951F9304
:10365000CF93DF93EB0190911202992321F0CB01DC
:103660000E941C1B13C0882349F0CB010E94DA1A68
:10367000182F682FCE010E947A1A04C0CB010E9435
:10368000AB1A182FBE01812F0E94FF03DF91CF914B
:103690001F9108958091710285958595859508956E
:1036A000809171028770089590917102977081E006
:1036B00009F480E008958091950208959091950213
:1036C000892B809395020895809590919502892386
:1036D0008093950208951092950208959091940216
:1036E000892B809394020895809590919402892368
:1036F00080939402089510929402089590919302F9
:10370000892B809393020895809590919302892349
:10371000809393020895109293020895809172020B
:10372000089508950C94911B0C94921B9091720231
:10373000981721F0809372020C94941B0895809145
:103740007202882329F01092720280E00C94941B7C
:103750000895E0911601F091170180919502808300
:10376000E0911601F0911701908180919402892BCC
:103770008083E0911601F09117019081809193026E
:10378000892B808380917202882381F0E091160159
:10379000F09117019081892B80838091160190917F
:1037A00017010E94BD1C81110E949F1B8091160170
:1037B000909117010C9478100C94911B982F990FED
:1037C000990F990F692B609371020E94DC19809107
:1037D00071028595859585950C94DC1B109271027C
:1037E00080E00C94DC1B20917102809582238093F1
:1037F0007102982F977079F430E0482F082E000C52
:10380000550B2417350739F08595859585950E94C8
:10381000FD190C94EE1B089580E090E00E941B2A95
:1038200021E08C3E9E4F09F020E0822F089582E037
:1038300090E00C940D2A682F82E090E00C94212AED
:1038400083E090E00C940D2A682F83E090E00C94C4
:10385000212ACF9384E090E00E940D2AC82F81E2B4
:1038600090E00E940D2A2C2F30E0A901582BCA01AC
:10387000CF910895CF93C92F682F84E090E00E94E4
:10388000212A6C2F81E290E0CF910C94212AAB0188
:10389000BC018FE090E00C94332AAB01BC0183E1C2
:1038A00090E00C94332A60E070E0CB010C944D1C46
:1038B00060E070E0CB010E94471C0C94531C6CEE3E
:1038C0007EEF80E090E00E943F2A60E082E090E09E
:1038D0000E94212A60E083E090E00E94212A109259
:1038E0006D0210926E0210926F021092700260E0F0
:1038F00084E090E00E94212A60E081E290E00E9452
:10390000212A60E085E090E00E94212A60E086E0C4
:1039100090E00E94212A6FEF87E090E00E94212A28
:1039200040E050E0BA0188E090E00E94332A60E075
:103930008DE090E00E94212A40E050E0BA0188E149
:1039400090E00E94332A60E087E190E00E94212A03
:1039500040E050E0BA018CE190E00E94332A60E040
:1039600080E290E00E94212A0C94581C0C945F1C69
:10397000682F8EE090E00C94212AFC013296809111
:103980002A01882331F08091FA0287FF02C09EE16C
:1039900001C096E080E0915028F021912223D9F3D4
:1039A0008F5FF9CF0895662351F120912A012223D8
:1039B000E9F02091FA0227FF19C0462F4695469557
:1039C00046954E31E0F4677021E030E002C0220FEE
:1039D000331F6A95E2F7FC01E40FF11D828190E04C
:1039E0002823392381E0232B69F409C0FC01329696
:1039F00008962191621729F0E817F907D1F780E0BE
:103A0000089581E008959C01FC0132969FEF80E0CB
:103A10004191461789F09F3F19F4411101C0982F39
:103A20008F5F8630A9F79F3F39F0F901E90FF11D4B
:103A300097FDFA956283089508959C012A5F3F4F90
:103A4000FC014281461301C012820196821793073E
:103A5000B9F70895262F2695269526952E3168F4D8
:103A6000FC01E20FF11D677021E030E001C0220F80
:103A70006A95EAF78281282B22830895262F2695BE
:103A8000269526952E3170F4FC01E20FF11D67702A
:103A900021E030E001C0220F6A95EAF7209582818B
:103AA00028232283089520912A01222329F020919E
:103AB000FA0227FD0C942A1D0C94031D20912A0163
:103AC000222329F02091FA0227FD0C943E1D0C942C
:103AD0001D1D20912A01FC013296222331F0809194
:103AE000FA0287FF02C08EE101C086E0DF011D926D
:103AF0008A95E9F7089508950C947B1D0C947B1D1D
:103B0000CF930E947E1D0E946C060E947C1DC0E027
:103B10008C2F0E94F505892B29F4CF5FC430C1F7A3
:103B200080E001C081E0CF9108950C947B1D0C943E
:103B3000951D0E94971D80910003843049F11092D9
:103B4000970220E488E190E00FB6F894A89580935E
:103B500060000FBE2093600080E00E947C030E9402
:103B6000971D83B7817F846083BF83B7816083BFE4
:103B70007894889583B78E7F83BF0FB6F894A89505
:103B800080916000886180936000109260000FBE99
:103B900008950C947B1D0E9482150E946C100E9457
:103BA0007C030C94C91D1F920F920FB60F92112423
:103BB0008F939F93AF93BF9380919702811113C00E
:103BC0008091F6029091F702A091F802B091F9026B
:103BD0004196A11DB11D8093F6029093F702A09328
:103BE000F802B093F902BF91AF919F918F910F901E
:103BF0000FBE0F901F90189582E084BD93E095BD95
:103C00009AEF97BD80936E0008952FB7F894809136
:103C1000F6029091F702A091F802B091F9022FBF3D
:103C200008959C014FB7F8948091F6029091F702A5
:103C3000A091F802B091F9024FBF821B930B089537
:103C400078941F920F920FB60F9211248F939F9327
:103C5000AF93BF938091F6029091F702A091F80282
:103C6000B091F9020196A11DB11D8093F6029093C7
:103C7000F702A093F802B093F902BF91AF919F9120
:103C80008F910F900FBE0F901F90189581E0809339
:103C9000E00080E28093D8001092C9008FE19EE49A
:103CA0000197F1F700C0000087E090EBDC01809302
:103CB000090390930A03A0930B03B0930C039CE0B9
:103CC00088E10FB6F894A895809360000FBE90939A
:103CD0006000FFCFAF92BF92CF92DF92EF92FF9240
:103CE0000F931F93CF93C0E0CC24C394D12CE82E24
:103CF000F12C8C2F0E94F5055C0100E010E0C6015C
:103D0000002E02C0880F991F0A94E2F78A219B2196
:103D1000892B31F40F5F1F4F0C30110581F70AC05A
:103D2000602F7C2F80E00E94DC03E816F90691F7F3
:103D300081E004C0CF5FC430E1F680E0CF911F91F5
:103D40000F91FF90EF90DF90CF90BF90AF900895CC
:103D5000CF93C82F8CE20E946A1E882321F08C2FFB
:103D6000CF910C946A1E80E0CF910895CF930E946A
:103D70000C1C811102C00E94B61CC5E6C15049F05E
:103D80000E946C068FE39CE90197F1F700C00000E8
:103D9000F5CF89E20E94A81E811120C18AE20E940B
:103DA000A81E81110E94B61C85E00E94A81E8111E8
:103DB0000E94461E0E94171C8093960287E00E9474
:103DC000A81E8823A9F18BE10E94A81E882351F028
:103DD0008091960281FB222720F991E0922790FBA7
:103DE00081F90EC08EE00E94A81E882361F08091A8
:103DF000960282FB222720F991E0922790FB82F91C
:103E00008093960215C080E10E94A81E90919602B0
:103E1000882341F093FB222720F981E0822780FB51
:103E200093F904C0892F809580FB90F990939602B6
:103E3000809196020E941B1C0E94291C9093FB02F9
:103E40008093FA0280EE0E94A81E882341F08091A0
:103E5000FA02982F909590FB80F98093FA0289E3FB
:103E60000E94A81E882359F08091FA0281FB222724
:103E700020F991E0922790FB81F98093FA0282EE7B
:103E80000E94A81E882359F08091FA0282FB222703
:103E900020F991E0922790FB82F98093FA0286EE56
:103EA0000E94A81E882359F08091FA0283FB2227E2
:103EB00020F991E0922790FB83F98093FA0283EE38
:103EC0000E94A81E882359F08091FA0284FB2227C1
:103ED00020F991E0922790FB84F98093FA0285E320
:103EE0000E94A81E882359F08091FA0285FB2227A0
:103EF00020F991E0922790FB85F98093FA0281E303
:103F00000E94A81E882359F08091FA0286FB22277E
:103F100020F991E0922790FB86F98093FA0281E1E3
:103F20000E94A81E882359F08091FA0287FB22275D
:103F300020F991E0922790FB87F98093FA02809113
:103F4000FA029091FB020E943A1C87E20E94A81E8E
:103F5000C82F8EE10E94A81E8111C2608FE10E94CD
:103F6000A81E8111C46080E20E94A81E8111C86051
:103F700081E20E94A81E8111C06182E20E94A81EF7
:103F80008111C06283E20E94A81E8111C06484E294
:103F90000E94A81E882311F0C06802C0CC2329F01B
:103FA0008C2F0E94241C6C2F03C00E94201C682FA1
:103FB00070E080E090E00E947C198FE00E94A81ED3
:103FC000882319F081E00E94B81C85E10E94A81E98
:103FD000882321F080E0CF910C94B81CCF910895F4
:103FE00080919F0280FF0CC080911D0190E065E0F0
:103FF00070E00E94572995958795959587952EC0D5
:1040000081FF0AC080911D0190E065E070E00E9490
:1040100057299595879522C082FF08C080911D0180
:1040200090E065E070E00E94572918C020919E0240
:104030002223D9F030911C01231780F780911D01B4
:1040400090E065E070E00E945729622F70E00E94C6
:104050005729632F70E00E948829CB018038910591
:1040600038F4009739F481E005C085E090E00895C8
:104070008FE70895089580919F0280FF08C06091A6
:10408000190170E0759567957595679523C081FF57
:1040900006C06091190170E0759567951BC082FF9D
:1040A00004C06091190170E012C060919E02662305
:1040B000A9F0209118016217A0F78091190170E012
:1040C00090E00E945729622F70E00E948829603892
:1040D000710540F46115710519F406C061E070E0E6
:1040E000862F08958FE7089581E00895803F21F499
:1040F0000E94F01F819504C0813F29F40E94F01FA7
:104100008093A3020895823F21F40E94F01F8195BD
:1041100004C0833F29F40E94F01F8093A2020895F7
:10412000893F19F40E943B2005C08A3F31F40E9468
:104130003B2081958093A40208958B3F21F40E9437
:104140003B20819504C08C3F29F40E943B20809342
:10415000A5020895843F21F48091A102816017C0D7
:10416000853F21F48091A102826011C0863F21F435
:104170008091A10284600BC0873F21F48091A1024D
:10418000886005C0883F31F48091A10280618093EE
:10419000A10208958D3F21F480919F0281600BC0A0
:1041A0008E3F21F480919F02826005C08F3F29F4E9
:1041B00080919F02846080939F020895803F39F42C
:1041C0008091A30287FF6CC01092A30269C0813F57
:1041D00029F48091A3021816BCF362C09091A20248
:1041E000823F29F497FF5CC01092A20259C0833F1E
:1041F00019F41916CCF354C0893F41F48091A402FC
:1042000018160CF04DC01092A4024AC08A3F29F43F
:104210008091A40287FF44C0F6CF8B3F39F4809190
:10422000A50287FF3DC01092A5023AC08C3F29F439
:104230008091A5021816BCF333C0843F21F480910D
:10424000A1028E7F17C0853F21F48091A1028D7F4E
:1042500011C0863F21F48091A1028B7F0BC0873F64
:1042600021F48091A102877F05C0883F31F48091BD
:10427000A1028F7E8093A10213C08D3F21F4809113
:104280009F028E7F0BC08E3F21F480919F028D7F15
:1042900005C08F3F29F480919F028B7F80939F02FE
:1042A0008091A20281110EC08091A30281110AC0E7
:1042B0008091A402811106C08091A502811102C0E3
:1042C00010929E02089580EA92E00E9492100E944D
:1042D000051E90939D0280939C020895CF93DF93D7
:1042E00000D000D000D0CDB7DEB786E0E0EAF2E043
:1042F000DE01119601900D928A95E1F78091A2025C
:10430000811105C08091A302882309F481C08091A6
:104310009A0290919B020E94111EFC0120919E0224
:10432000222339F080911E0190E08E179F0760F0E4
:104330006FC080911F0190E06AE070E00E945729F1
:104340008E179F0718F064C02F3F19F02F5F20933E
:104350009E021092A4021092A5028091A202181649
:1043600024F40E94F01F8093A2028091A20287FF92
:1043700005C00E94F01F81958093A2028091A30244
:10438000181624F40E94F01F8093A3028091A302C8
:1043900087FF05C00E94F01F81958093A302809142
:1043A000A202882311F12091A3022223F1F0082E0A
:1043B000000C990B65EB70E00E945729992319F0C6
:1043C0009093A20203C081E08093A202822F220F69
:1043D000990B65EB70E00E945729992319F090938F
:1043E000A30203C081E08093A3020E946321809115
:1043F0009C0290919D0290939B0280939A0286E08A
:10440000FE013196A0EAB2E001900D928A95E1F7A3
:104410008091A402811105C08091A502882309F42E
:1044200081C080919802909199020E94111EFC0116
:1044300020919E02222339F080911A0190E08E177C
:104440009F0760F06FC080911B0190E06AE070E010
:104450000E9457298E179F0718F064C02F3F19F04C
:104460002F5F20939E021092A2021092A3028091CD
:10447000A402181624F40E943B208093A402809189
:10448000A40287FF05C00E943B2081958093A4026F
:104490008091A502181624F40E943B208093A50267
:1044A0008091A50287FF05C00E943B2081958093E3
:1044B000A5028091A402882311F12091A502222354
:1044C000F1F0082E000C990B65EB70E00E94572963
:1044D000992319F09093A40203C081E08093A40271
:1044E000822F220F990B65EB70E00E9457299923C8
:1044F00019F09093A50203C081E08093A5020E9469
:10450000632180919C0290919D02909399028093E7
:10451000980286E0FE013196A0EAB2E001900D9289
:104520008A95E1F726960FB6F894DEBF0FBECDBF91
:10453000DF91CF910895E0EAF2E086E0DF011D927D
:104540008A95E9F710929E0210929F020895809139
:10455000C6020895CF93DF9300D01F92CDB7DEB788
:1045600090910003943019F589837B836A8382E0FC
:104570008093E9008FEF9091E800815095FD06C08F
:1045800095ED9A95F1F700008111F5CF8091E80043
:1045900085FF0DC040E050E063E070E0CE01019681
:1045A0000E94F1248091E8008E778093E8000F90BC
:1045B0000F900F90DF91CF910895CF93DF93EC018F
:1045C0000E94D424823011F0843031F4BE0184E0A2
:1045D000DF91CF910C94AA22DF91CF910895BC0175
:1045E00083E00C94AA22CF93DF93EC010E94D424A1
:1045F000823011F08430F9F482E08093E9008FEF8B
:104600009091E800815095FD06C095ED9A95F1F7DF
:1046100000008111F5CF8091E80085FF0CC040E0DB
:1046200050E066E070E0CE010E94F1248091E80045
:104630008E778093E800DF91CF910895CF93DF9339
:10464000EC010E94D424823011F08430D9F580919D
:104650002A01882339F08091FA0287FF03C060E2C3
:1046600082E002C068E081E08093E9008FEF9091E2
:10467000E800815095FD06C095ED9A95F1F7000090
:104680008111F5CF8091E80085FF1CC080912A013F
:10469000811105C040E050E068E070E003C070E0C8
:1046A00040E050E0CE010E94F1248091E8008E7736
:1046B0008093E80080E2FE01A6EAB2E001900D924C
:1046C0008A95E1F7DF91CF910895089508950C94AC
:1046D000CB1D42E061EC81E00E94F52542E261ECF5
:1046E00082E00C94F52580910203833009F45CC0CC
:1046F00030F4813071F0823009F495C008958A3029
:1047000009F481C08B3009F467C0893009F0A3C077
:1047100020C080910103813A09F09DC08091E8009A
:10472000877F8093E8008091050390910603892B91
:1047300021F460E286EA92E003C060E080E090E06D
:1047400070E00E943C258091E8008B778093E80020
:10475000089580910103813209F07DC080910503A5
:1047600090910603029708F076C08091E800877F59
:104770008093E8008091E80082FD05C080910003ED
:104780008111F8CF68C08091F200823029F48091C5
:10479000F1008B7F813021F48091F1008093C6027B
:1047A0008091E8008B7753C080910103813A09F032
:1047B00052C08091050390910603892B09F04BC0EC
:1047C0008091E800877F8093E8008091E80080FF77
:1047D000FCCF80912A0136C0809101038132D9F546
:1047E0008091050390910603892BA9F58091E8003B
:1047F000877F8093E8000E942A268091030380939C
:104800002A010C94821580910103813221F5809157
:10481000E800877F8093E8000E942A2680910403A5
:104820008093C702089580910103813AA1F4809199
:10483000E800877F8093E8008091E80080FFFCCF4C
:104840008091C7028093F1008091E8008E77809379
:10485000E8000C942A26089584B7877F84BF0FB69A
:10486000F894A89580916000886180936000109210
:1048700060000FBE90E080E80FB6F894809361006E
:10488000909361000FBE0E94D5100E947C260E946A
:10489000CF268091E20084608093E20078940E94A9
:1048A00033290E94DD1080E291E00E946710809120
:1048B0000003853069F40E94991D8091FE028823CF
:1048C000B1F30E94801D882391F30E94DB24EFCF77
:1048D0000E94E710ECCF0C946D24292F332723304E
:1048E0003105C9F060F42130310581F02230310505
:1048F00009F04AC08BE390E022E534E049C0213260
:10490000310511F12232310579F13EC082E190E0AA
:104910002DE834E03DC099278130910561F040F0E9
:104920008230910559F0039779F5E6E2F4E008C08A
:10493000EEE4F4E005C0ECE3F4E002C0ECE2F4E005
:10494000849190E09F0124C06115710541F06130B0
:104950007105D1F489E090E02DE734E019C089E0D9
:1049600090E024E634E014C06115710541F0613037
:10497000710551F48CEB90E02FE934E009C080E43C
:1049800090E02BE535E004C080E090E020E030E0EE
:10499000FA0131832083089580910003843011F05F
:1049A00081E0089582E008958091C802811102C0DB
:1049B0000C94CC24089584E089BD86E089BD09B4B7
:1049C00000FEFDCF8091D8008F7D8093D80080912C
:1049D000E00082608093E0008091E00081FDFCCFE8
:1049E0000895CF92DF92EF92FF920F931F93CF9390
:1049F000DF93EC018B017A010E944926811133C0BB
:104A0000E114F10439F0F70180819181081B190B41
:104A1000C80FD91FC12CD12C0115110519F1809196
:104A2000E80085FD16C08091E8008E778093E8004D
:104A3000E114F10449F0F70180819181C80ED91E7B
:104A4000D182C08285E00FC00E944926882321F3CD
:104A50000AC089918093F10001501109FFEFCF1A2C
:104A6000DF0ADACF80E0DF91CF911F910F91FF90A5
:104A7000EF90DF90CF9008952091070330910803C5
:104A80002617370748F06115710539F42091E800C1
:104A90002E772093E80001C0B901FC0120E06115E8
:104AA000710561F1809100038823D9F18530D9F136
:104AB0008091E80083FD39C08091E80082FD2BC021
:104AC0008091E80080FFEBCF8091F20090E06115CB
:104AD000710551F08830910538F421912093F1004F
:104AE000615071090196F3CF21E0089709F020E0A9
:104AF0008091E8008E778093E800D1CF2111D2CF4A
:104B00000AC080910003882361F0853061F08091B4
:104B1000E80083FD0AC08091E80082FFF2CF80E0C8
:104B2000089582E0089583E0089581E0089520913A
:104B30000703309108032617370748F06115710500
:104B400039F42091E8002E772093E80001C0B901E4
:104B5000FC0120E06115710579F180910003882343
:104B600009F43DC0853009F43CC08091E80083FD24
:104B70003AC08091E80082FD2CC08091E80080FF5F
:104B8000E9CF8091F20090E06115710559F088300D
:104B9000910540F424912093F10031966150710900
:104BA0000196F2CF21E0089709F020E08091E8001B
:104BB0008E778093E800CECF2111CFCF0AC08091AD
:104BC0000003882361F0853061F08091E80083FD67
:104BD0000AC08091E80082FFF2CF80E0089582E071
:104BE000089583E0089581E00895982F953068F541
:104BF0009093E900981739F07091EC002091ED0046
:104C00005091F00003C0242F762F50E021FD02C008
:104C10009F5FECCF3091EB003E7F3093EB00309103
:104C2000ED003D7F3093ED003091EB00316030932B
:104C3000EB007093EC002093ED005093F000209176
:104C4000EE0027FDE5CF80E008958F708093E900A6
:104C500081E008958091010387FF11C08091E800F1
:104C600082FD05C0809100038111F8CF11C08091B1
:104C7000E8008B770BC080910003882349F0809176
:104C8000E80080FFF8CF8091E8008E778093E800FD
:104C900008952091E4003091E50095E64091EC0004
:104CA000842F817040FF23C08091E80080FD1DC0EB
:104CB00080910003882399F0853099F08091EB0072
:104CC00085FD11C04091E4005091E500241735079F
:104CD00029F3915011F09A01E1CF84E0089582E028
:104CE000089583E0089581E0089580E0089540915B
:104CF000E80042FFDDCF08950E94D9260E94DC26FD
:104D0000E0EEF0E0808181608083E8EDF0E080817A
:104D10008F77808319BCE3E6F0E080818160808337
:104D20001092FF0208950E94D9260E94DC268091ED
:104D3000D8008F778093D8008091D80080688093C6
:104D4000D8008091D8008F7D8093D80084E089BD01
:104D500086E089BD09B400FEFDCF109200031092D9
:104D6000FC021092FE021092FD0242E060E080E040
:104D70000E94F5258091E1008E7F8093E100809173
:104D8000E20081608093E2008091E200886080937D
:104D9000E2008091E0008E7F8093E0000895E3E6DA
:104DA000F0E080818E7F808381E08093FF020C940D
:104DB00093261092E20008951092E10008951F9248
:104DC0000F920FB60F9211242F933F934F935F933F
:104DD0006F937F938F939F93AF93BF93EF93FF93C3
:104DE0008091E10082FF0BC08091E20082FF07C04A
:104DF0008091E1008B7F8093E1000E9432298091B5
:104E0000E10080FF19C08091E20080FF15C0809111
:104E1000E2008E7F8093E2008091E20080618093C7
:104E2000E2008091D80080628093D80019BC85E0B0
:104E3000809300030E9466238091E10084FF30C0CC
:104E40008091E20084FF2CC084E089BD86E089BDAA
:104E500009B400FEFDCF8091D8008F7D8093D800EB
:104E60008091E1008F7E8093E1008091E2008F7E4F
:104E70008093E2008091E20081608093E200809163
:104E8000FC02882311F084E007C08091E30087FDD5
:104E900002C081E001C083E0809300030E94672389
:104EA0008091E10083FF29C08091E20083FF25C04B
:104EB0008091E100877F8093E10082E0809300038E
:104EC0001092FC028091E1008E7F8093E10080913E
:104ED000E2008E7F8093E2008091E2008061809307
:104EE000E20042E060E080E00E94F5258091F00061
:104EF00088608093F0000E946523FF91EF91BF913D
:104F0000AF919F918F917F916F915F914F913F9161
:104F10002F910F900FBE0F901F9018951F920F9218
:104F20000FB60F9211242F933F934F935F936F937C
:104F30007F938F939F93AF93BF93CF93DF93EF9321
:104F4000FF93C091E900CF708091EC00D82FD17011
:104F500080FDD0E81092E9008091F000877F809377
:104F6000F00078940E94D2271092E9008091F0001E
:104F700088608093F000CD2BCF70C093E900FF9143
:104F8000EF91DF91CF91BF91AF919F918F917F91E1
:104F90006F915F914F913F912F910F900FBE0F90A6
:104FA0001F9018951F93CF93DF93CDB7DEB7AA97C5
:104FB0000FB6F894DEBF0FBECDBFE1E0F3E0809105
:104FC000F100819323E0E930F207C9F70E947323CF
:104FD0008091E80083FF2EC180910103909102032C
:104FE000492F50E04A30510508F024C1FA01E45934
:104FF000FF4F0C949C29803821F0823809F01AC1A7
:1050000008C08091FD029091FE02992389F0826090
:105010000FC0809105038F70853008F00BC180931D
:10502000E9008091EB0085FB882780F91092E90068
:105030009091E800977F9093E8008093F1001092A0
:10504000F100D1C0282F2D7F09F0F4C0882319F07A
:10505000823061F0EFC080910303813009F0EAC033
:10506000933009F080E08093FE022EC0809103030C
:1050700081112AC0809105038F702FEF280F2430F3
:1050800008F0D8C08093E9002091EB0020FF1CC0FD
:10509000933021F48091EB00806214C09091EB007A
:1050A00090619093EB0021E030E0A90102C0440F31
:1050B000551F8A95E2F74093EA001092EA0080912A
:1050C000EB0088608093EB001092E9008091E8008B
:1050D000877F8093E8000E942A26ACC08111AAC075
:1050E000109103031F778091E3008078812B8093D8
:1050F000E3008091E800877F8093E8000E942A26E1
:105100008091E80080FFFCCF8091E300806880936D
:10511000E300111102C082E001C083E0809300032C
:1051200089C08058823008F085C080910303909137
:1051300004038C3D53E0950779F583E08A838AE286
:1051400089834FB7F894DE01139620E03EE051E2E8
:10515000E32FF0E050935700E49120FF03C0E29565
:10516000EF703F5FEF708E2F90E0EA3010F0C7963F
:1051700001C0C0968D939D932F5F243149F74FBF97
:105180008091E800877F8093E8006AE270E0CE01BA
:1051900001960E943C2516C060910503709106039C
:1051A000AE014F5F5F4F0E946B24BC01892B09F455
:1051B00041C09091E800977F9093E80089819A819F
:1051C0000E9497258091E8008B778093E80032C099
:1051D000803881F58091E800877F8093E800809196
:1051E000FC028093F1008091E8008E7772CF8111EC
:1051F00021C0809103039091040399270297D4F46E
:105200008091E800877F8093E8008091030380937A
:10521000FC020E942A268091FC02811106C0809126
:10522000E30087FD02C081E001C084E080930003B9
:105230000E9469238091E80083FF0AC08091E80002
:10524000877F8093E8008091EB0080628093EB0081
:10525000AA960FB6F894DEBF0FBECDBFDF91CF91F7
:105260001F9108950895CF93809100038823A1F0A2
:10527000C091E900CF709091EC00892F817090FD72
:1052800080E8C82B1092E9008091E80083FD0E941D
:10529000D227CF70C093E900CF910895002480FDFC
:1052A000060E660F11F08695D1F7802D0895002423
:1052B000552704C0080E591F880F991F009729F021
:1052C00076956795B8F37105B9F7802D952F0895F8
:1052D000991B79E004C0991F961708F0961B881F48
:1052E0007A95C9F780950895AA1BBB1B51E107C0A9
:1052F000AA1FBB1FA617B70710F0A61BB70B881F66
:10530000991F5A95A9F780959095BC01CD010895F4
:1053100097FB072E16F4009407D077FD09D00E9462
:10532000742907FC05D03EF4909581959F4F089510
:10533000709561957F4F0895EE0FFF1F0590F491D2
:10534000E02D09948F929F92AF92BF92CF92DF92FD
:10535000EF92FF92CF93DF93EC01688179818A818C
:105360009B81611571058105910521F464E279ED58
:105370008BE597E02DE133EF41E050E00E946E2A8B
:1053800049015A0127EA31E440E050E00E94552AE1
:105390006B017C012CEE34EF4FEF5FEFC501B401E0
:1053A0000E94552ADC01CB018C0D9D1DAE1DBF1D39
:1053B000B7FF03C00197A109B04888839983AA83E6
:1053C000BB839F77DF91CF91FF90EF90DF90CF90DD
:1053D000BF90AF909F908F9008950E94A22908954A
:1053E00080E091E00E94A2290895A0E0B0E08093BF
:1053F000000190930101A0930201B093030108956D
:10540000FC014150504030F001900616D1F7319721
:10541000CF010895882799270895F999FECF92BD65
:1054200081BDF89A992780B50895A6E1B0E044E0DF
:1054300050E00C94472AA8E1B0E042E050E00C9420
:10544000472A262FF999FECF92BD81BDF89A019780
:1054500000B4021639F01FBA20BD0FB6F894FA9ABC
:10546000F99A0FBE08950396272F0E94222A0E94C0
:10547000212A252F0E94222A242F0C94222A0196C9
:10548000272F0E94222A0C94212ADC01CB01FC0147
:10549000F999FECF06C0F2BDE1BDF89A319600B48D
:1054A0000D9241505040B8F70895EE27FF27AA27E4
:1054B000BB2708C0A20FB31FE41FF51F220F331F25
:1054C000441F551F969587957795679598F370407B
:1054D000A9F7009799F7BD01CF010895052E97FB15
:1054E0001EF400940E94852A57FD07D00E948D2A41
:1054F00007FC03D04EF40C94852A509540953095C6
:1055000021953F4F4F4F5F4F08959095809570952F
:1055100061957F4F8F4F9F4F0895A1E21A2EAA1BCE
:10552000BB1BFD010DC0AA1FBB1FEE1FFF1FA21753
:10553000B307E407F50720F0A21BB30BE40BF50B50
:10554000661F771F881F991F1A9469F760957095D9
:10555000809590959B01AC01BD01CF010895F89411
:02556000FFCF7B
:10556200010000000102000800080801191A1B1CB2
:105572001D1E1F20212273022808641E140A321ED7
:10558200A7221E23F322EF22DD2201E200E900EA34
:1055920000B500B600B700CD008301CC008A0192AD
:1055A2000194012102230224022502260227022A53
:1055B20002B300B4006F00700081828364653736E5
:1055C2003534333231309695919293940001020230
:1055D20002020606060909090909090F0F0F0F0F32
:1055E2000F15151518191919191919191919192336
:1055F20024252525252525E200E900EA00B500B687
:1056020000B700CD008301CC008A019201940121F0
:1056120002230224022502260227022A02B300B430
:08562200006F0070008182831B
:00000001FF
